{
  "contractName": "CropInsurance",
  "abi": [
    {
      "inputs": [
        {
          "internalType": "uint256",
          "name": "",
          "type": "uint256"
        }
      ],
      "name": "insuranceData",
      "outputs": [
        {
          "internalType": "uint256",
          "name": "areaOfLand",
          "type": "uint256"
        },
        {
          "internalType": "uint256",
          "name": "sumInsuredPerAcre",
          "type": "uint256"
        },
        {
          "internalType": "uint256",
          "name": "premiumAmount",
          "type": "uint256"
        },
        {
          "internalType": "uint256",
          "name": "dispersalAmount",
          "type": "uint256"
        },
        {
          "internalType": "uint256",
          "name": "premiumRate",
          "type": "uint256"
        },
        {
          "internalType": "address",
          "name": "farmer",
          "type": "address"
        }
      ],
      "stateMutability": "view",
      "type": "function",
      "constant": true
    },
    {
      "stateMutability": "payable",
      "type": "receive",
      "payable": true
    },
    {
      "inputs": [
        {
          "internalType": "uint256",
          "name": "fips",
          "type": "uint256"
        },
        {
          "internalType": "uint256",
          "name": "areaOfLand",
          "type": "uint256"
        },
        {
          "internalType": "uint256",
          "name": "sumInsuredPerAcre",
          "type": "uint256"
        },
        {
          "internalType": "uint256",
          "name": "premiumRate",
          "type": "uint256"
        },
        {
          "internalType": "address",
          "name": "farmer",
          "type": "address"
        }
      ],
      "name": "addInsurance",
      "outputs": [],
      "stateMutability": "nonpayable",
      "type": "function"
    },
    {
      "inputs": [
        {
          "internalType": "uint256",
          "name": "fips",
          "type": "uint256"
        }
      ],
      "name": "disperseInsurance",
      "outputs": [],
      "stateMutability": "nonpayable",
      "type": "function"
    }
  ],
  "bytecode": "0x608060405234801561001057600080fd5b506103fb806100206000396000f3fe6080604052600436106100385760003560e01c806335cc59fa14610044578063d066513d14610066578063f5c8b8b81461008657600080fd5b3661003f57005b600080fd5b34801561005057600080fd5b5061006461005f366004610306565b610119565b005b34801561007257600080fd5b5061006461008136600461035f565b61025f565b34801561009257600080fd5b506100df6100a136600461035f565b60006020819052908152604090208054600182015460028301546003840154600485015460059095015493949293919290916001600160a01b031686565b60408051968752602087019590955293850192909252606084015260808301526001600160a01b031660a082015260c00160405180910390f35b6001600160a01b0381166101745760405162461bcd60e51b815260206004820152601d60248201527f4661726d657220616464726573732063616e6e6f74206265207a65726f00000060448201526064015b60405180910390fd5b60006064836101838688610378565b61018d9190610378565b61019791906103a3565b905060006064846101a88789610378565b6101b29190610378565b6101bc91906103a3565b90508181116101df5760646101d283606e610378565b6101dc91906103a3565b90505b6040805160c081018252968752602080880196875287820193845260608801928352608088019586526001600160a01b0394851660a089019081526000998a529089905297209551865593516001860155516002850155915160038401555160048301559151600590910180546001600160a01b03191691909216179055565b600081815260208190526040902060038101544710156102c15760405162461bcd60e51b815260206004820181905260248201527f496e73756666696369656e742062616c616e636520696e20636f6e7472616374604482015260640161016b565b600581015460038201546040516001600160a01b039092169181156108fc0291906000818181858888f19350505050158015610301573d6000803e3d6000fd5b505050565b600080600080600060a0868803121561031e57600080fd5b8535945060208601359350604086013592506060860135915060808601356001600160a01b038116811461035157600080fd5b809150509295509295909350565b60006020828403121561037157600080fd5b5035919050565b808202811582820484141761039d57634e487b7160e01b600052601160045260246000fd5b92915050565b6000826103c057634e487b7160e01b600052601260045260246000fd5b50049056fea26469706673582212206ef839a432b53088dc50789eb829b78e25f4af082b18ba800352b8ea265b42a464736f6c63430008150033",
  "immutableReferences": {},
  "source": "// SPDX-License-Identifier: MIT\r\npragma solidity ^0.8.0;\r\n\r\ncontract CropInsurance {\r\n\r\n    struct InsuranceDetails {\r\n        uint256 areaOfLand;\r\n        uint256 sumInsuredPerAcre;\r\n        uint256 premiumAmount;\r\n        uint256 dispersalAmount;\r\n        uint256 premiumRate;\r\n        address farmer;\r\n    }\r\n\r\n    mapping(uint256 => InsuranceDetails) public insuranceData;\r\n\r\n    // Function to add insurance details\r\n    function addInsurance(\r\n        uint256 fips,\r\n        uint256 areaOfLand,\r\n        uint256 sumInsuredPerAcre,\r\n        uint256 premiumRate,\r\n        address farmer\r\n    ) public {\r\n        require(farmer != address(0), \"Farmer address cannot be zero\");\r\n        \r\n        // Calculate premium amount\r\n        uint256 premiumAmount = (areaOfLand * sumInsuredPerAcre * premiumRate) / 100;\r\n\r\n        // Calculate dispersal amount (same base formula + 10% buffer if needed)\r\n        uint256 dispersalAmount = (areaOfLand * sumInsuredPerAcre * premiumRate) / 100;\r\n\r\n        // Ensure dispersal amount is greater than premium amount (add 10% buffer)\r\n        if (dispersalAmount <= premiumAmount) {\r\n            dispersalAmount = premiumAmount * 110 / 100;\r\n        }\r\n\r\n        // Store insurance details\r\n        insuranceData[fips] = InsuranceDetails(\r\n            areaOfLand,\r\n            sumInsuredPerAcre,\r\n            premiumAmount,\r\n            dispersalAmount,\r\n            premiumRate,\r\n            farmer\r\n        );\r\n    }\r\n\r\n    // Function to disperse insurance amount\r\n    function disperseInsurance(uint256 fips) public {\r\n        InsuranceDetails storage insurance = insuranceData[fips];\r\n        \r\n        // Ensure contract has enough balance\r\n        require(address(this).balance >= insurance.dispersalAmount, \"Insufficient balance in contract\");\r\n        \r\n        // Transfer dispersal amount to farmer's address (using payable)\r\n        payable(insurance.farmer).transfer(insurance.dispersalAmount);\r\n    }\r\n\r\n    // Function to receive payments to the contract (if needed)\r\n    receive() external payable {}\r\n}\r\n",
  "sourcePath": "C:\\Users\\leela\\CropInsurance\\contracts\\CropInsurance.sol",
  "compiler": {
    "name": "solc",
    "version": "0.8.21+commit.d9974bed.Emscripten.clang"
  },
  "schemaVersion": "3.4.16",
  "updatedAt": "2024-11-22T09:09:19.105Z",
  "networkType": "ethereum",
  "devdoc": {
    "kind": "dev",
    "methods": {},
    "version": 1
  },
  "userdoc": {
    "kind": "user",
    "methods": {},
    "version": 1
  }
}